{
    "_format": "hh-sol-artifact-1",
    "contractName": "TxbiTix",
    "sourceName": "contracts/TxbiTix.sol",
    "abi": [
        {
            "inputs": [],
            "stateMutability": "nonpayable",
            "type": "constructor"
        },
        {
            "anonymous": false,
            "inputs": [
                {
                    "indexed": true,
                    "internalType": "address",
                    "name": "owner",
                    "type": "address"
                },
                {
                    "indexed": true,
                    "internalType": "address",
                    "name": "approved",
                    "type": "address"
                },
                {
                    "indexed": true,
                    "internalType": "uint256",
                    "name": "tokenId",
                    "type": "uint256"
                }
            ],
            "name": "Approval",
            "type": "event"
        },
        {
            "anonymous": false,
            "inputs": [
                {
                    "indexed": true,
                    "internalType": "address",
                    "name": "owner",
                    "type": "address"
                },
                {
                    "indexed": true,
                    "internalType": "address",
                    "name": "operator",
                    "type": "address"
                },
                {
                    "indexed": false,
                    "internalType": "bool",
                    "name": "approved",
                    "type": "bool"
                }
            ],
            "name": "ApprovalForAll",
            "type": "event"
        },
        {
            "anonymous": false,
            "inputs": [
                {
                    "indexed": true,
                    "internalType": "address",
                    "name": "previousOwner",
                    "type": "address"
                },
                {
                    "indexed": true,
                    "internalType": "address",
                    "name": "newOwner",
                    "type": "address"
                }
            ],
            "name": "OwnershipTransferred",
            "type": "event"
        },
        {
            "anonymous": false,
            "inputs": [
                {
                    "indexed": true,
                    "internalType": "address",
                    "name": "from",
                    "type": "address"
                },
                {
                    "indexed": true,
                    "internalType": "address",
                    "name": "to",
                    "type": "address"
                },
                {
                    "indexed": true,
                    "internalType": "uint256",
                    "name": "tokenId",
                    "type": "uint256"
                }
            ],
            "name": "Transfer",
            "type": "event"
        },
        {
            "inputs": [
                {
                    "internalType": "address",
                    "name": "to",
                    "type": "address"
                },
                {
                    "internalType": "uint256",
                    "name": "tokenId",
                    "type": "uint256"
                }
            ],
            "name": "approve",
            "outputs": [],
            "stateMutability": "nonpayable",
            "type": "function"
        },
        {
            "inputs": [],
            "name": "availableTicketCount",
            "outputs": [
                {
                    "internalType": "uint256",
                    "name": "",
                    "type": "uint256"
                }
            ],
            "stateMutability": "view",
            "type": "function"
        },
        {
            "inputs": [],
            "name": "availableTickets",
            "outputs": [
                {
                    "internalType": "uint256",
                    "name": "",
                    "type": "uint256"
                }
            ],
            "stateMutability": "view",
            "type": "function"
        },
        {
            "inputs": [
                {
                    "internalType": "address",
                    "name": "owner",
                    "type": "address"
                }
            ],
            "name": "balanceOf",
            "outputs": [
                {
                    "internalType": "uint256",
                    "name": "",
                    "type": "uint256"
                }
            ],
            "stateMutability": "view",
            "type": "function"
        },
        {
            "inputs": [],
            "name": "closeSale",
            "outputs": [],
            "stateMutability": "nonpayable",
            "type": "function"
        },
        {
            "inputs": [
                {
                    "internalType": "uint256",
                    "name": "tokenId",
                    "type": "uint256"
                }
            ],
            "name": "getApproved",
            "outputs": [
                {
                    "internalType": "address",
                    "name": "",
                    "type": "address"
                }
            ],
            "stateMutability": "view",
            "type": "function"
        },
        {
            "inputs": [
                {
                    "internalType": "address",
                    "name": "",
                    "type": "address"
                },
                {
                    "internalType": "uint256",
                    "name": "",
                    "type": "uint256"
                }
            ],
            "name": "holderTokenIDs",
            "outputs": [
                {
                    "internalType": "uint256",
                    "name": "",
                    "type": "uint256"
                }
            ],
            "stateMutability": "view",
            "type": "function"
        },
        {
            "inputs": [
                {
                    "internalType": "address",
                    "name": "owner",
                    "type": "address"
                },
                {
                    "internalType": "address",
                    "name": "operator",
                    "type": "address"
                }
            ],
            "name": "isApprovedForAll",
            "outputs": [
                {
                    "internalType": "bool",
                    "name": "",
                    "type": "bool"
                }
            ],
            "stateMutability": "view",
            "type": "function"
        },
        {
            "inputs": [],
            "name": "mint",
            "outputs": [],
            "stateMutability": "payable",
            "type": "function"
        },
        {
            "inputs": [],
            "name": "mintPrice",
            "outputs": [
                {
                    "internalType": "uint256",
                    "name": "",
                    "type": "uint256"
                }
            ],
            "stateMutability": "view",
            "type": "function"
        },
        {
            "inputs": [],
            "name": "name",
            "outputs": [
                {
                    "internalType": "string",
                    "name": "",
                    "type": "string"
                }
            ],
            "stateMutability": "view",
            "type": "function"
        },
        {
            "inputs": [],
            "name": "openSale",
            "outputs": [],
            "stateMutability": "nonpayable",
            "type": "function"
        },
        {
            "inputs": [],
            "name": "owner",
            "outputs": [
                {
                    "internalType": "address",
                    "name": "",
                    "type": "address"
                }
            ],
            "stateMutability": "view",
            "type": "function"
        },
        {
            "inputs": [
                {
                    "internalType": "uint256",
                    "name": "tokenId",
                    "type": "uint256"
                }
            ],
            "name": "ownerOf",
            "outputs": [
                {
                    "internalType": "address",
                    "name": "",
                    "type": "address"
                }
            ],
            "stateMutability": "view",
            "type": "function"
        },
        {
            "inputs": [],
            "name": "renounceOwnership",
            "outputs": [],
            "stateMutability": "nonpayable",
            "type": "function"
        },
        {
            "inputs": [
                {
                    "internalType": "address",
                    "name": "from",
                    "type": "address"
                },
                {
                    "internalType": "address",
                    "name": "to",
                    "type": "address"
                },
                {
                    "internalType": "uint256",
                    "name": "tokenId",
                    "type": "uint256"
                }
            ],
            "name": "safeTransferFrom",
            "outputs": [],
            "stateMutability": "nonpayable",
            "type": "function"
        },
        {
            "inputs": [
                {
                    "internalType": "address",
                    "name": "from",
                    "type": "address"
                },
                {
                    "internalType": "address",
                    "name": "to",
                    "type": "address"
                },
                {
                    "internalType": "uint256",
                    "name": "tokenId",
                    "type": "uint256"
                },
                {
                    "internalType": "bytes",
                    "name": "data",
                    "type": "bytes"
                }
            ],
            "name": "safeTransferFrom",
            "outputs": [],
            "stateMutability": "nonpayable",
            "type": "function"
        },
        {
            "inputs": [],
            "name": "saleIsActive",
            "outputs": [
                {
                    "internalType": "bool",
                    "name": "",
                    "type": "bool"
                }
            ],
            "stateMutability": "view",
            "type": "function"
        },
        {
            "inputs": [
                {
                    "internalType": "address",
                    "name": "operator",
                    "type": "address"
                },
                {
                    "internalType": "bool",
                    "name": "approved",
                    "type": "bool"
                }
            ],
            "name": "setApprovalForAll",
            "outputs": [],
            "stateMutability": "nonpayable",
            "type": "function"
        },
        {
            "inputs": [
                {
                    "internalType": "bytes4",
                    "name": "interfaceId",
                    "type": "bytes4"
                }
            ],
            "name": "supportsInterface",
            "outputs": [
                {
                    "internalType": "bool",
                    "name": "",
                    "type": "bool"
                }
            ],
            "stateMutability": "view",
            "type": "function"
        },
        {
            "inputs": [],
            "name": "symbol",
            "outputs": [
                {
                    "internalType": "string",
                    "name": "",
                    "type": "string"
                }
            ],
            "stateMutability": "view",
            "type": "function"
        },
        {
            "inputs": [
                {
                    "internalType": "uint256",
                    "name": "tokenId",
                    "type": "uint256"
                }
            ],
            "name": "tokenURI",
            "outputs": [
                {
                    "internalType": "string",
                    "name": "",
                    "type": "string"
                }
            ],
            "stateMutability": "view",
            "type": "function"
        },
        {
            "inputs": [],
            "name": "totalTicketCount",
            "outputs": [
                {
                    "internalType": "uint256",
                    "name": "",
                    "type": "uint256"
                }
            ],
            "stateMutability": "view",
            "type": "function"
        },
        {
            "inputs": [],
            "name": "totalTickets",
            "outputs": [
                {
                    "internalType": "uint256",
                    "name": "",
                    "type": "uint256"
                }
            ],
            "stateMutability": "view",
            "type": "function"
        },
        {
            "inputs": [
                {
                    "internalType": "address",
                    "name": "from",
                    "type": "address"
                },
                {
                    "internalType": "address",
                    "name": "to",
                    "type": "address"
                },
                {
                    "internalType": "uint256",
                    "name": "tokenId",
                    "type": "uint256"
                }
            ],
            "name": "transferFrom",
            "outputs": [],
            "stateMutability": "nonpayable",
            "type": "function"
        },
        {
            "inputs": [
                {
                    "internalType": "address",
                    "name": "newOwner",
                    "type": "address"
                }
            ],
            "name": "transferOwnership",
            "outputs": [],
            "stateMutability": "nonpayable",
            "type": "function"
        }
    ],
    "bytecode": "0x60806040526009805460ff19169055600a808055600b5566b1a2bc2ec50000600c553480156200002e57600080fd5b50604051806040016040528060078152602001660a8f0c4d2a8d2f60cb1b815250604051806040016040528060078152602001660a8b08492a8d2f60cb1b815250816000908051906020019062000087929190620001d6565b5080516200009d906001906020840190620001d6565b505050620000ba620000b46200010360201b60201c565b62000107565b620000d160086200015960201b62000c931760201c565b620000fd620000ec60086200016260201b62000c9c1760201c565b6200016660201b62000ca01760201c565b620002b9565b3390565b600780546001600160a01b038381166001600160a01b0319831681179093556040519116919082907f8be0079c531659141344cd1fd0a4f28419497f9722a3daafe3b4186f6b6457e090600090a35050565b80546001019055565b5490565b620001b2816040516024016200017e91815260200190565b60408051601f198184030181529190526020810180516001600160e01b0390811663f5b1bba960e01b17909152620001b516565b50565b80516a636f6e736f6c652e6c6f67602083016000808483855afa5050505050565b828054620001e4906200027c565b90600052602060002090601f01602090048101928262000208576000855562000253565b82601f106200022357805160ff191683800117855562000253565b8280016001018555821562000253579182015b828111156200025357825182559160200191906001019062000236565b506200026192915062000265565b5090565b5b8082111562000261576000815560010162000266565b600181811c908216806200029157607f821691505b60208210811415620002b357634e487b7160e01b600052602260045260246000fd5b50919050565b61203080620002c96000396000f3fe6080604052600436106101815760003560e01c806370a08231116100d1578063b88d4fde1161008a578063e985e9c511610064578063e985e9c514610412578063eb8d24441461045b578063ee55efee14610475578063f2fde38b1461048a57600080fd5b8063b88d4fde146103bc578063c87b56dd146103dc578063dd11247e146103fc57600080fd5b806370a0823114610314578063715018a61461033457806382ac0bb8146103495780638da5cb5b1461036957806395d89b4114610387578063a22cb4651461039c57600080fd5b8063167ff46f1161013e5780633d721ecd116101185780633d721ecd146102a957806342842e0e146102be5780636352211e146102de5780636817c76c146102fe57600080fd5b8063167ff46f1461025e57806323b872dd146102735780633cfa7e011461029357600080fd5b806301ffc9a71461018657806306fdde03146101bb578063081812fc146101dd578063095ea7b3146102155780631249c58b1461023757806314558fab1461023f575b600080fd5b34801561019257600080fd5b506101a66101a1366004611a9f565b6104aa565b60405190151581526020015b60405180910390f35b3480156101c757600080fd5b506101d06104fc565b6040516101b29190611d6c565b3480156101e957600080fd5b506101fd6101f8366004611ad7565b61058e565b6040516001600160a01b0390911681526020016101b2565b34801561022157600080fd5b50610235610230366004611a76565b6105b5565b005b6102356106d0565b34801561024b57600080fd5b50600a545b6040519081526020016101b2565b34801561026a57600080fd5b50610235610911565b34801561027f57600080fd5b5061023561028e36600461192c565b610928565b34801561029f57600080fd5b50610250600b5481565b3480156102b557600080fd5b50600b54610250565b3480156102ca57600080fd5b506102356102d936600461192c565b610959565b3480156102ea57600080fd5b506101fd6102f9366004611ad7565b610974565b34801561030a57600080fd5b50610250600c5481565b34801561032057600080fd5b5061025061032f3660046118e0565b6109d4565b34801561034057600080fd5b50610235610a5a565b34801561035557600080fd5b50610250610364366004611a76565b610a6e565b34801561037557600080fd5b506007546001600160a01b03166101fd565b34801561039357600080fd5b506101d0610a9f565b3480156103a857600080fd5b506102356103b7366004611a3c565b610aae565b3480156103c857600080fd5b506102356103d7366004611967565b610abd565b3480156103e857600080fd5b506101d06103f7366004611ad7565b610af5565b34801561040857600080fd5b50610250600a5481565b34801561041e57600080fd5b506101a661042d3660046118fa565b6001600160a01b03918216600090815260056020908152604080832093909416825291909152205460ff1690565b34801561046757600080fd5b506009546101a69060ff1681565b34801561048157600080fd5b50610235610c06565b34801561049657600080fd5b506102356104a53660046118e0565b610c1a565b60006001600160e01b031982166380ac58cd60e01b14806104db57506001600160e01b03198216635b5e139f60e01b145b806104f657506301ffc9a760e01b6001600160e01b03198316145b92915050565b60606000805461050b90611ead565b80601f016020809104026020016040519081016040528092919081815260200182805461053790611ead565b80156105845780601f1061055957610100808354040283529160200191610584565b820191906000526020600020905b81548152906001019060200180831161056757829003601f168201915b5050505050905090565b600061059982610ce5565b506000908152600460205260409020546001600160a01b031690565b60006105c082610974565b9050806001600160a01b0316836001600160a01b031614156106335760405162461bcd60e51b815260206004820152602160248201527f4552433732313a20617070726f76616c20746f2063757272656e74206f776e656044820152603960f91b60648201526084015b60405180910390fd5b336001600160a01b038216148061064f575061064f813361042d565b6106c15760405162461bcd60e51b815260206004820152603e60248201527f4552433732313a20617070726f76652063616c6c6572206973206e6f7420746f60448201527f6b656e206f776e6572206e6f7220617070726f76656420666f7220616c6c0000606482015260840161062a565b6106cb8383610d44565b505050565b6000600b54116107145760405162461bcd60e51b815260206004820152600f60248201526e1d1a58dad95d1cc81bdd5d1cdbdb19608a1b604482015260640161062a565b600c543410156107595760405162461bcd60e51b815260206004820152601060248201526f0d2dce6eaccccd2c6d2cadce8408aa8960831b604482015260640161062a565b60095460ff166107b55760405162461bcd60e51b815260206004820152602160248201527f5469636b657473206172652063757272656e746c7920756e617661696c61626c6044820152606560f81b606482015260840161062a565b6107bd611804565b6040518060800160405280604b8152602001611f70604b913981526008546107e990610db2565b610db2565b6020828101918252604080518082018252600d81526c1e17ba32bc3a1f1e17b9bb339f60991b81840152818501819052845193519151600094610830949093929101611b4a565b6040516020818303038152906040529050600061084c82610ecc565b90506108578161102e565b600061088e6108686107e460085490565b8360405160200161087a929190611b8d565b604051602081830303815290604052610ecc565b90506000816040516020016108a39190611cf4565b60405160208183030381529060405290506108bd8161102e565b6108c68161102e565b6108d8336108d360085490565b611071565b6108ea6108e460085490565b8261108b565b6108f8600880546001019055565b6001600b546109079190611e6a565b600b555050505050565b610919611125565b6009805460ff19166001179055565b610932338261117f565b61094e5760405162461bcd60e51b815260040161062a90611dd1565b6106cb8383836111fd565b6106cb83838360405180602001604052806000815250610abd565b6000818152600260205260408120546001600160a01b0316806104f65760405162461bcd60e51b8152602060048201526018602482015277115490cdcc8c4e881a5b9d985b1a59081d1bdad95b88125160421b604482015260640161062a565b60006001600160a01b038216610a3e5760405162461bcd60e51b815260206004820152602960248201527f4552433732313a2061646472657373207a65726f206973206e6f7420612076616044820152683634b21037bbb732b960b91b606482015260840161062a565b506001600160a01b031660009081526003602052604090205490565b610a62611125565b610a6c6000611399565b565b600d6020528160005260406000208181548110610a8a57600080fd5b90600052602060002001600091509150505481565b60606001805461050b90611ead565b610ab93383836113eb565b5050565b610ac7338361117f565b610ae35760405162461bcd60e51b815260040161062a90611dd1565b610aef848484846114ba565b50505050565b6060610b0082610ce5565b60008281526006602052604081208054610b1990611ead565b80601f0160208091040260200160405190810160405280929190818152602001828054610b4590611ead565b8015610b925780601f10610b6757610100808354040283529160200191610b92565b820191906000526020600020905b815481529060010190602001808311610b7557829003601f168201915b505050505090506000610bb060408051602081019091526000815290565b9050805160001415610bc3575092915050565b815115610bf5578082604051602001610bdd929190611b1b565b60405160208183030381529060405292505050919050565b610bfe846114ed565b949350505050565b610c0e611125565b6009805460ff19169055565b610c22611125565b6001600160a01b038116610c875760405162461bcd60e51b815260206004820152602660248201527f4f776e61626c653a206e6577206f776e657220697320746865207a65726f206160448201526564647265737360d01b606482015260840161062a565b610c9081611399565b50565b80546001019055565b5490565b610c9081604051602401610cb691815260200190565b60408051601f198184030181529190526020810180516001600160e01b031663f5b1bba960e01b179052611561565b6000818152600260205260409020546001600160a01b0316610c905760405162461bcd60e51b8152602060048201526018602482015277115490cdcc8c4e881a5b9d985b1a59081d1bdad95b88125160421b604482015260640161062a565b600081815260046020526040902080546001600160a01b0319166001600160a01b0384169081179091558190610d7982610974565b6001600160a01b03167f8c5be1e5ebec7d5bd14f71427d1e84f3dd0314c0f7b2291e5b200ac8c7c3b92560405160405180910390a45050565b606081610dd65750506040805180820190915260018152600360fc1b602082015290565b8160005b8115610e005780610dea81611ee8565b9150610df99050600a83611e37565b9150610dda565b60008167ffffffffffffffff811115610e2957634e487b7160e01b600052604160045260246000fd5b6040519080825280601f01601f191660200182016040528015610e53576020820181803683370190505b5090505b8415610bfe57610e68600183611e6a565b9150610e75600a86611f03565b610e80906030611e1f565b60f81b818381518110610ea357634e487b7160e01b600052603260045260246000fd5b60200101906001600160f81b031916908160001a905350610ec5600a86611e37565b9450610e57565b6060815160001415610eec57505060408051602081019091526000815290565b6000604051806060016040528060408152602001611fbb6040913990506000600384516002610f1b9190611e1f565b610f259190611e37565b610f30906004611e4b565b67ffffffffffffffff811115610f5657634e487b7160e01b600052604160045260246000fd5b6040519080825280601f01601f191660200182016040528015610f80576020820181803683370190505b509050600182016020820185865187015b80821015610fec576003820191508151603f8160121c168501518453600184019350603f81600c1c168501518453600184019350603f8160061c168501518453600184019350603f8116850151845350600183019250610f91565b5050600386510660018114611008576002811461101b57611023565b603d6001830353603d6002830353611023565b603d60018303535b509195945050505050565b610c90816040516024016110429190611d6c565b60408051601f198184030181529190526020810180516001600160e01b031663104c13eb60e21b179052611561565b610ab9828260405180602001604052806000815250611582565b6000828152600260205260409020546001600160a01b03166111065760405162461bcd60e51b815260206004820152602e60248201527f45524337323155524953746f726167653a2055524920736574206f66206e6f6e60448201526d32bc34b9ba32b73a103a37b5b2b760911b606482015260840161062a565b600082815260066020908152604090912082516106cb9284019061182b565b6007546001600160a01b03163314610a6c5760405162461bcd60e51b815260206004820181905260248201527f4f776e61626c653a2063616c6c6572206973206e6f7420746865206f776e6572604482015260640161062a565b60008061118b83610974565b9050806001600160a01b0316846001600160a01b031614806111d257506001600160a01b0380821660009081526005602090815260408083209388168352929052205460ff165b80610bfe5750836001600160a01b03166111eb8461058e565b6001600160a01b031614949350505050565b826001600160a01b031661121082610974565b6001600160a01b0316146112745760405162461bcd60e51b815260206004820152602560248201527f4552433732313a207472616e736665722066726f6d20696e636f72726563742060448201526437bbb732b960d91b606482015260840161062a565b6001600160a01b0382166112d65760405162461bcd60e51b8152602060048201526024808201527f4552433732313a207472616e7366657220746f20746865207a65726f206164646044820152637265737360e01b606482015260840161062a565b6112e1600082610d44565b6001600160a01b038316600090815260036020526040812080546001929061130a908490611e6a565b90915550506001600160a01b0382166000908152600360205260408120805460019290611338908490611e1f565b909155505060008181526002602052604080822080546001600160a01b0319166001600160a01b0386811691821790925591518493918716917fddf252ad1be2c89b69c2b068fc378daa952ba7f163c4a11628f55a4df523b3ef91a4505050565b600780546001600160a01b038381166001600160a01b0319831681179093556040519116919082907f8be0079c531659141344cd1fd0a4f28419497f9722a3daafe3b4186f6b6457e090600090a35050565b816001600160a01b0316836001600160a01b0316141561144d5760405162461bcd60e51b815260206004820152601960248201527f4552433732313a20617070726f766520746f2063616c6c657200000000000000604482015260640161062a565b6001600160a01b03838116600081815260056020908152604080832094871680845294825291829020805460ff191686151590811790915591519182527f17307eab39ab6107e8899845ad3d59bd9653f200f220920489ca2b5937696c31910160405180910390a3505050565b6114c58484846111fd565b6114d1848484846115b5565b610aef5760405162461bcd60e51b815260040161062a90611d7f565b60606114f882610ce5565b600061150f60408051602081019091526000815290565b9050600081511161152f576040518060200160405280600081525061155a565b8061153984610db2565b60405160200161154a929190611b1b565b6040516020818303038152906040525b9392505050565b80516a636f6e736f6c652e6c6f67602083016000808483855afa5050505050565b61158c83836116c2565b61159960008484846115b5565b6106cb5760405162461bcd60e51b815260040161062a90611d7f565b60006001600160a01b0384163b156116b757604051630a85bd0160e11b81526001600160a01b0385169063150b7a02906115f9903390899088908890600401611d39565b602060405180830381600087803b15801561161357600080fd5b505af1925050508015611643575060408051601f3d908101601f1916820190925261164091810190611abb565b60015b61169d573d808015611671576040519150601f19603f3d011682016040523d82523d6000602084013e611676565b606091505b5080516116955760405162461bcd60e51b815260040161062a90611d7f565b805181602001fd5b6001600160e01b031916630a85bd0160e11b149050610bfe565b506001949350505050565b6001600160a01b0382166117185760405162461bcd60e51b815260206004820181905260248201527f4552433732313a206d696e7420746f20746865207a65726f2061646472657373604482015260640161062a565b6000818152600260205260409020546001600160a01b03161561177d5760405162461bcd60e51b815260206004820152601c60248201527f4552433732313a20746f6b656e20616c7265616479206d696e74656400000000604482015260640161062a565b6001600160a01b03821660009081526003602052604081208054600192906117a6908490611e1f565b909155505060008181526002602052604080822080546001600160a01b0319166001600160a01b03861690811790915590518392907fddf252ad1be2c89b69c2b068fc378daa952ba7f163c4a11628f55a4df523b3ef908290a45050565b60405180606001604052806003905b60608152602001906001900390816118135790505090565b82805461183790611ead565b90600052602060002090601f016020900481019282611859576000855561189f565b82601f1061187257805160ff191683800117855561189f565b8280016001018555821561189f579182015b8281111561189f578251825591602001919060010190611884565b506118ab9291506118af565b5090565b5b808211156118ab57600081556001016118b0565b80356001600160a01b03811681146118db57600080fd5b919050565b6000602082840312156118f1578081fd5b61155a826118c4565b6000806040838503121561190c578081fd5b611915836118c4565b9150611923602084016118c4565b90509250929050565b600080600060608486031215611940578081fd5b611949846118c4565b9250611957602085016118c4565b9150604084013590509250925092565b6000806000806080858703121561197c578081fd5b611985856118c4565b9350611993602086016118c4565b925060408501359150606085013567ffffffffffffffff808211156119b6578283fd5b818701915087601f8301126119c9578283fd5b8135818111156119db576119db611f43565b604051601f8201601f19908116603f01168101908382118183101715611a0357611a03611f43565b816040528281528a6020848701011115611a1b578586fd5b82602086016020830137918201602001949094529598949750929550505050565b60008060408385031215611a4e578182fd5b611a57836118c4565b915060208301358015158114611a6b578182fd5b809150509250929050565b60008060408385031215611a88578182fd5b611a91836118c4565b946020939093013593505050565b600060208284031215611ab0578081fd5b813561155a81611f59565b600060208284031215611acc578081fd5b815161155a81611f59565b600060208284031215611ae8578081fd5b5035919050565b60008151808452611b07816020860160208601611e81565b601f01601f19169290920160200192915050565b60008351611b2d818460208801611e81565b835190830190611b41818360208801611e81565b01949350505050565b60008451611b5c818460208901611e81565b845190830190611b70818360208901611e81565b8451910190611b83818360208801611e81565b0195945050505050565b737b20226e616d65223a202254786269546978202360601b81528251600090611bbd816014850160208801611e81565b7f222c20226465736372697074696f6e223a202241204e46542d706f7765726564601491840191820152730103a34b1b5b2ba34b7339039bcb9ba32b69116160651b60348201527f22747261697473223a205b7b202274726169745f74797065223a20224368656360488201527f6b656420496e222c202276616c7565223a20227472756522207d2c207b20227460688201527f726169745f74797065223a2022507572636861736564222c202276616c75652260888201526c01d10113a393ab291103eae961609d1b60a88201527f22696d616765223a2022646174613a696d6167652f7376672b786d6c3b62617360b582015263194d8d0b60e21b60d58201528351611cd28160d9840160208801611e81565b611cea60d9828401016222207d60e81b815260030190565b9695505050505050565b7f646174613a6170706c69636174696f6e2f6a736f6e3b6261736536342c000000815260008251611d2c81601d850160208701611e81565b91909101601d0192915050565b6001600160a01b0385811682528416602082015260408101839052608060608201819052600090611cea90830184611aef565b60208152600061155a6020830184611aef565b60208082526032908201527f4552433732313a207472616e7366657220746f206e6f6e20455243373231526560408201527131b2b4bb32b91034b6b83632b6b2b73a32b960711b606082015260800190565b6020808252602e908201527f4552433732313a2063616c6c6572206973206e6f7420746f6b656e206f776e6560408201526d1c881b9bdc88185c1c1c9bdd995960921b606082015260800190565b60008219821115611e3257611e32611f17565b500190565b600082611e4657611e46611f2d565b500490565b6000816000190483118215151615611e6557611e65611f17565b500290565b600082821015611e7c57611e7c611f17565b500390565b60005b83811015611e9c578181015183820152602001611e84565b83811115610aef5750506000910152565b600181811c90821680611ec157607f821691505b60208210811415611ee257634e487b7160e01b600052602260045260246000fd5b50919050565b6000600019821415611efc57611efc611f17565b5060010190565b600082611f1257611f12611f2d565b500690565b634e487b7160e01b600052601160045260246000fd5b634e487b7160e01b600052601260045260246000fd5b634e487b7160e01b600052604160045260246000fd5b6001600160e01b031981168114610c9057600080fdfe3c7376672076696577426f783d2230203020313030203130302220786d6c6e733d22687474703a2f2f7777772e77332e6f72672f323030302f737667223e3c7465787420793d223530223e4142434445464748494a4b4c4d4e4f505152535455565758595a6162636465666768696a6b6c6d6e6f707172737475767778797a303132333435363738392b2fa26469706673582212200e59b4c286ccc524fb83f9e6c21d291db2dbbe1d4a2421021b5020e107eaafb164736f6c63430008040033",
    "linkReferences": {},
    "deployedLinkReferences": {}
}