{
    "_format": "hh-sol-artifact-1",
    "contractName": "TxbiTix",
    "sourceName": "contracts/TxbiTix.sol",
    "abi": [
        {
            "inputs": [],
            "stateMutability": "nonpayable",
            "type": "constructor"
        },
        {
            "anonymous": false,
            "inputs": [
                {
                    "indexed": true,
                    "internalType": "address",
                    "name": "owner",
                    "type": "address"
                },
                {
                    "indexed": true,
                    "internalType": "address",
                    "name": "approved",
                    "type": "address"
                },
                {
                    "indexed": true,
                    "internalType": "uint256",
                    "name": "tokenId",
                    "type": "uint256"
                }
            ],
            "name": "Approval",
            "type": "event"
        },
        {
            "anonymous": false,
            "inputs": [
                {
                    "indexed": true,
                    "internalType": "address",
                    "name": "owner",
                    "type": "address"
                },
                {
                    "indexed": true,
                    "internalType": "address",
                    "name": "operator",
                    "type": "address"
                },
                {
                    "indexed": false,
                    "internalType": "bool",
                    "name": "approved",
                    "type": "bool"
                }
            ],
            "name": "ApprovalForAll",
            "type": "event"
        },
        {
            "anonymous": false,
            "inputs": [
                {
                    "indexed": true,
                    "internalType": "address",
                    "name": "previousOwner",
                    "type": "address"
                },
                {
                    "indexed": true,
                    "internalType": "address",
                    "name": "newOwner",
                    "type": "address"
                }
            ],
            "name": "OwnershipTransferred",
            "type": "event"
        },
        {
            "anonymous": false,
            "inputs": [
                {
                    "indexed": true,
                    "internalType": "address",
                    "name": "from",
                    "type": "address"
                },
                {
                    "indexed": true,
                    "internalType": "address",
                    "name": "to",
                    "type": "address"
                },
                {
                    "indexed": true,
                    "internalType": "uint256",
                    "name": "tokenId",
                    "type": "uint256"
                }
            ],
            "name": "Transfer",
            "type": "event"
        },
        {
            "inputs": [
                {
                    "internalType": "address",
                    "name": "to",
                    "type": "address"
                },
                {
                    "internalType": "uint256",
                    "name": "tokenId",
                    "type": "uint256"
                }
            ],
            "name": "approve",
            "outputs": [],
            "stateMutability": "nonpayable",
            "type": "function"
        },
        {
            "inputs": [],
            "name": "availableTicketCount",
            "outputs": [
                {
                    "internalType": "uint256",
                    "name": "",
                    "type": "uint256"
                }
            ],
            "stateMutability": "view",
            "type": "function"
        },
        {
            "inputs": [],
            "name": "availableTickets",
            "outputs": [
                {
                    "internalType": "uint256",
                    "name": "",
                    "type": "uint256"
                }
            ],
            "stateMutability": "view",
            "type": "function"
        },
        {
            "inputs": [
                {
                    "internalType": "address",
                    "name": "owner",
                    "type": "address"
                }
            ],
            "name": "balanceOf",
            "outputs": [
                {
                    "internalType": "uint256",
                    "name": "",
                    "type": "uint256"
                }
            ],
            "stateMutability": "view",
            "type": "function"
        },
        {
            "inputs": [],
            "name": "closeSale",
            "outputs": [],
            "stateMutability": "nonpayable",
            "type": "function"
        },
        {
            "inputs": [
                {
                    "internalType": "address",
                    "name": "walletAddress",
                    "type": "address"
                }
            ],
            "name": "confirmOwnership",
            "outputs": [
                {
                    "internalType": "bool",
                    "name": "",
                    "type": "bool"
                }
            ],
            "stateMutability": "view",
            "type": "function"
        },
        {
            "inputs": [
                {
                    "internalType": "uint256",
                    "name": "tokenId",
                    "type": "uint256"
                }
            ],
            "name": "getApproved",
            "outputs": [
                {
                    "internalType": "address",
                    "name": "",
                    "type": "address"
                }
            ],
            "stateMutability": "view",
            "type": "function"
        },
        {
            "inputs": [
                {
                    "internalType": "address",
                    "name": "",
                    "type": "address"
                },
                {
                    "internalType": "uint256",
                    "name": "",
                    "type": "uint256"
                }
            ],
            "name": "holderTokenIDs",
            "outputs": [
                {
                    "internalType": "uint256",
                    "name": "",
                    "type": "uint256"
                }
            ],
            "stateMutability": "view",
            "type": "function"
        },
        {
            "inputs": [
                {
                    "internalType": "address",
                    "name": "owner",
                    "type": "address"
                },
                {
                    "internalType": "address",
                    "name": "operator",
                    "type": "address"
                }
            ],
            "name": "isApprovedForAll",
            "outputs": [
                {
                    "internalType": "bool",
                    "name": "",
                    "type": "bool"
                }
            ],
            "stateMutability": "view",
            "type": "function"
        },
        {
            "inputs": [],
            "name": "mint",
            "outputs": [],
            "stateMutability": "payable",
            "type": "function"
        },
        {
            "inputs": [],
            "name": "mintPrice",
            "outputs": [
                {
                    "internalType": "uint256",
                    "name": "",
                    "type": "uint256"
                }
            ],
            "stateMutability": "view",
            "type": "function"
        },
        {
            "inputs": [],
            "name": "name",
            "outputs": [
                {
                    "internalType": "string",
                    "name": "",
                    "type": "string"
                }
            ],
            "stateMutability": "view",
            "type": "function"
        },
        {
            "inputs": [],
            "name": "openSale",
            "outputs": [],
            "stateMutability": "nonpayable",
            "type": "function"
        },
        {
            "inputs": [],
            "name": "owner",
            "outputs": [
                {
                    "internalType": "address",
                    "name": "",
                    "type": "address"
                }
            ],
            "stateMutability": "view",
            "type": "function"
        },
        {
            "inputs": [
                {
                    "internalType": "uint256",
                    "name": "tokenId",
                    "type": "uint256"
                }
            ],
            "name": "ownerOf",
            "outputs": [
                {
                    "internalType": "address",
                    "name": "",
                    "type": "address"
                }
            ],
            "stateMutability": "view",
            "type": "function"
        },
        {
            "inputs": [],
            "name": "renounceOwnership",
            "outputs": [],
            "stateMutability": "nonpayable",
            "type": "function"
        },
        {
            "inputs": [
                {
                    "internalType": "address",
                    "name": "from",
                    "type": "address"
                },
                {
                    "internalType": "address",
                    "name": "to",
                    "type": "address"
                },
                {
                    "internalType": "uint256",
                    "name": "tokenId",
                    "type": "uint256"
                }
            ],
            "name": "safeTransferFrom",
            "outputs": [],
            "stateMutability": "nonpayable",
            "type": "function"
        },
        {
            "inputs": [
                {
                    "internalType": "address",
                    "name": "from",
                    "type": "address"
                },
                {
                    "internalType": "address",
                    "name": "to",
                    "type": "address"
                },
                {
                    "internalType": "uint256",
                    "name": "tokenId",
                    "type": "uint256"
                },
                {
                    "internalType": "bytes",
                    "name": "data",
                    "type": "bytes"
                }
            ],
            "name": "safeTransferFrom",
            "outputs": [],
            "stateMutability": "nonpayable",
            "type": "function"
        },
        {
            "inputs": [],
            "name": "saleIsActive",
            "outputs": [
                {
                    "internalType": "bool",
                    "name": "",
                    "type": "bool"
                }
            ],
            "stateMutability": "view",
            "type": "function"
        },
        {
            "inputs": [
                {
                    "internalType": "address",
                    "name": "operator",
                    "type": "address"
                },
                {
                    "internalType": "bool",
                    "name": "approved",
                    "type": "bool"
                }
            ],
            "name": "setApprovalForAll",
            "outputs": [],
            "stateMutability": "nonpayable",
            "type": "function"
        },
        {
            "inputs": [
                {
                    "internalType": "bytes4",
                    "name": "interfaceId",
                    "type": "bytes4"
                }
            ],
            "name": "supportsInterface",
            "outputs": [
                {
                    "internalType": "bool",
                    "name": "",
                    "type": "bool"
                }
            ],
            "stateMutability": "view",
            "type": "function"
        },
        {
            "inputs": [],
            "name": "symbol",
            "outputs": [
                {
                    "internalType": "string",
                    "name": "",
                    "type": "string"
                }
            ],
            "stateMutability": "view",
            "type": "function"
        },
        {
            "inputs": [
                {
                    "internalType": "uint256",
                    "name": "tokenId",
                    "type": "uint256"
                }
            ],
            "name": "tokenURI",
            "outputs": [
                {
                    "internalType": "string",
                    "name": "",
                    "type": "string"
                }
            ],
            "stateMutability": "view",
            "type": "function"
        },
        {
            "inputs": [],
            "name": "totalTicketCount",
            "outputs": [
                {
                    "internalType": "uint256",
                    "name": "",
                    "type": "uint256"
                }
            ],
            "stateMutability": "view",
            "type": "function"
        },
        {
            "inputs": [],
            "name": "totalTickets",
            "outputs": [
                {
                    "internalType": "uint256",
                    "name": "",
                    "type": "uint256"
                }
            ],
            "stateMutability": "view",
            "type": "function"
        },
        {
            "inputs": [
                {
                    "internalType": "address",
                    "name": "from",
                    "type": "address"
                },
                {
                    "internalType": "address",
                    "name": "to",
                    "type": "address"
                },
                {
                    "internalType": "uint256",
                    "name": "tokenId",
                    "type": "uint256"
                }
            ],
            "name": "transferFrom",
            "outputs": [],
            "stateMutability": "nonpayable",
            "type": "function"
        },
        {
            "inputs": [
                {
                    "internalType": "address",
                    "name": "newOwner",
                    "type": "address"
                }
            ],
            "name": "transferOwnership",
            "outputs": [],
            "stateMutability": "nonpayable",
            "type": "function"
        }
    ],
    "bytecode": "0x60806040526009805460ff19169055600a808055600b5566b1a2bc2ec50000600c553480156200002e57600080fd5b50604051806040016040528060078152602001660a8f0c4d2a8d2f60cb1b815250604051806040016040528060078152602001660a8b08492a8d2f60cb1b815250816000908051906020019062000087929190620001d6565b5080516200009d906001906020840190620001d6565b505050620000ba620000b46200010360201b60201c565b62000107565b620000d160086200015960201b62000ce61760201c565b620000fd620000ec60086200016260201b62000cef1760201c565b6200016660201b62000cf31760201c565b620002b9565b3390565b600780546001600160a01b038381166001600160a01b0319831681179093556040519116919082907f8be0079c531659141344cd1fd0a4f28419497f9722a3daafe3b4186f6b6457e090600090a35050565b80546001019055565b5490565b620001b2816040516024016200017e91815260200190565b60408051601f198184030181529190526020810180516001600160e01b0390811663f5b1bba960e01b17909152620001b516565b50565b80516a636f6e736f6c652e6c6f67602083016000808483855afa5050505050565b828054620001e4906200027c565b90600052602060002090601f01602090048101928262000208576000855562000253565b82601f106200022357805160ff191683800117855562000253565b8280016001018555821562000253579182015b828111156200025357825182559160200191906001019062000236565b506200026192915062000265565b5090565b5b8082111562000261576000815560010162000266565b600181811c908216806200029157607f821691505b60208210811415620002b357634e487b7160e01b600052602260045260246000fd5b50919050565b61208380620002c96000396000f3fe60806040526004361061019c5760003560e01c806370a08231116100ec578063b88d4fde1161008a578063e985e9c511610064578063e985e9c514610465578063eb8d2444146104ae578063ee55efee146104c8578063f2fde38b146104dd57600080fd5b8063b88d4fde1461040f578063c87b56dd1461042f578063dd11247e1461044f57600080fd5b806382ac0bb8116100c657806382ac0bb81461039c5780638da5cb5b146103bc57806395d89b41146103da578063a22cb465146103ef57600080fd5b806370a082311461032f578063715018a61461034f57806380f2abe31461036457600080fd5b8063167ff46f116101595780633d721ecd116101335780633d721ecd146102c457806342842e0e146102d95780636352211e146102f95780636817c76c1461031957600080fd5b8063167ff46f1461027957806323b872dd1461028e5780633cfa7e01146102ae57600080fd5b806301ffc9a7146101a157806306fdde03146101d6578063081812fc146101f8578063095ea7b3146102305780631249c58b1461025257806314558fab1461025a575b600080fd5b3480156101ad57600080fd5b506101c16101bc366004611af2565b6104fd565b60405190151581526020015b60405180910390f35b3480156101e257600080fd5b506101eb61054f565b6040516101cd9190611dbf565b34801561020457600080fd5b50610218610213366004611b2a565b6105e1565b6040516001600160a01b0390911681526020016101cd565b34801561023c57600080fd5b5061025061024b366004611ac9565b610608565b005b610250610723565b34801561026657600080fd5b50600a545b6040519081526020016101cd565b34801561028557600080fd5b50610250610964565b34801561029a57600080fd5b506102506102a936600461197f565b61097b565b3480156102ba57600080fd5b5061026b600b5481565b3480156102d057600080fd5b50600b5461026b565b3480156102e557600080fd5b506102506102f436600461197f565b6109ac565b34801561030557600080fd5b50610218610314366004611b2a565b6109c7565b34801561032557600080fd5b5061026b600c5481565b34801561033b57600080fd5b5061026b61034a366004611933565b610a27565b34801561035b57600080fd5b50610250610aad565b34801561037057600080fd5b506101c161037f366004611933565b6001600160a01b03166000908152600d6020526040902054151590565b3480156103a857600080fd5b5061026b6103b7366004611ac9565b610ac1565b3480156103c857600080fd5b506007546001600160a01b0316610218565b3480156103e657600080fd5b506101eb610af2565b3480156103fb57600080fd5b5061025061040a366004611a8f565b610b01565b34801561041b57600080fd5b5061025061042a3660046119ba565b610b10565b34801561043b57600080fd5b506101eb61044a366004611b2a565b610b48565b34801561045b57600080fd5b5061026b600a5481565b34801561047157600080fd5b506101c161048036600461194d565b6001600160a01b03918216600090815260056020908152604080832093909416825291909152205460ff1690565b3480156104ba57600080fd5b506009546101c19060ff1681565b3480156104d457600080fd5b50610250610c59565b3480156104e957600080fd5b506102506104f8366004611933565b610c6d565b60006001600160e01b031982166380ac58cd60e01b148061052e57506001600160e01b03198216635b5e139f60e01b145b8061054957506301ffc9a760e01b6001600160e01b03198316145b92915050565b60606000805461055e90611f00565b80601f016020809104026020016040519081016040528092919081815260200182805461058a90611f00565b80156105d75780601f106105ac576101008083540402835291602001916105d7565b820191906000526020600020905b8154815290600101906020018083116105ba57829003601f168201915b5050505050905090565b60006105ec82610d38565b506000908152600460205260409020546001600160a01b031690565b6000610613826109c7565b9050806001600160a01b0316836001600160a01b031614156106865760405162461bcd60e51b815260206004820152602160248201527f4552433732313a20617070726f76616c20746f2063757272656e74206f776e656044820152603960f91b60648201526084015b60405180910390fd5b336001600160a01b03821614806106a257506106a28133610480565b6107145760405162461bcd60e51b815260206004820152603e60248201527f4552433732313a20617070726f76652063616c6c6572206973206e6f7420746f60448201527f6b656e206f776e6572206e6f7220617070726f76656420666f7220616c6c0000606482015260840161067d565b61071e8383610d97565b505050565b6000600b54116107675760405162461bcd60e51b815260206004820152600f60248201526e1d1a58dad95d1cc81bdd5d1cdbdb19608a1b604482015260640161067d565b600c543410156107ac5760405162461bcd60e51b815260206004820152601060248201526f0d2dce6eaccccd2c6d2cadce8408aa8960831b604482015260640161067d565b60095460ff166108085760405162461bcd60e51b815260206004820152602160248201527f5469636b657473206172652063757272656e746c7920756e617661696c61626c6044820152606560f81b606482015260840161067d565b610810611857565b6040518060800160405280604b8152602001611fc3604b9139815260085461083c90610e05565b610e05565b6020828101918252604080518082018252600d81526c1e17ba32bc3a1f1e17b9bb339f60991b81840152818501819052845193519151600094610883949093929101611b9d565b6040516020818303038152906040529050600061089f82610f1f565b90506108aa81611081565b60006108e16108bb61083760085490565b836040516020016108cd929190611be0565b604051602081830303815290604052610f1f565b90506000816040516020016108f69190611d47565b604051602081830303815290604052905061091081611081565b61091981611081565b61092b3361092660085490565b6110c4565b61093d61093760085490565b826110de565b61094b600880546001019055565b6001600b5461095a9190611ebd565b600b555050505050565b61096c611178565b6009805460ff19166001179055565b61098533826111d2565b6109a15760405162461bcd60e51b815260040161067d90611e24565b61071e838383611250565b61071e83838360405180602001604052806000815250610b10565b6000818152600260205260408120546001600160a01b0316806105495760405162461bcd60e51b8152602060048201526018602482015277115490cdcc8c4e881a5b9d985b1a59081d1bdad95b88125160421b604482015260640161067d565b60006001600160a01b038216610a915760405162461bcd60e51b815260206004820152602960248201527f4552433732313a2061646472657373207a65726f206973206e6f7420612076616044820152683634b21037bbb732b960b91b606482015260840161067d565b506001600160a01b031660009081526003602052604090205490565b610ab5611178565b610abf60006113ec565b565b600d6020528160005260406000208181548110610add57600080fd5b90600052602060002001600091509150505481565b60606001805461055e90611f00565b610b0c33838361143e565b5050565b610b1a33836111d2565b610b365760405162461bcd60e51b815260040161067d90611e24565b610b428484848461150d565b50505050565b6060610b5382610d38565b60008281526006602052604081208054610b6c90611f00565b80601f0160208091040260200160405190810160405280929190818152602001828054610b9890611f00565b8015610be55780601f10610bba57610100808354040283529160200191610be5565b820191906000526020600020905b815481529060010190602001808311610bc857829003601f168201915b505050505090506000610c0360408051602081019091526000815290565b9050805160001415610c16575092915050565b815115610c48578082604051602001610c30929190611b6e565b60405160208183030381529060405292505050919050565b610c5184611540565b949350505050565b610c61611178565b6009805460ff19169055565b610c75611178565b6001600160a01b038116610cda5760405162461bcd60e51b815260206004820152602660248201527f4f776e61626c653a206e6577206f776e657220697320746865207a65726f206160448201526564647265737360d01b606482015260840161067d565b610ce3816113ec565b50565b80546001019055565b5490565b610ce381604051602401610d0991815260200190565b60408051601f198184030181529190526020810180516001600160e01b031663f5b1bba960e01b1790526115b4565b6000818152600260205260409020546001600160a01b0316610ce35760405162461bcd60e51b8152602060048201526018602482015277115490cdcc8c4e881a5b9d985b1a59081d1bdad95b88125160421b604482015260640161067d565b600081815260046020526040902080546001600160a01b0319166001600160a01b0384169081179091558190610dcc826109c7565b6001600160a01b03167f8c5be1e5ebec7d5bd14f71427d1e84f3dd0314c0f7b2291e5b200ac8c7c3b92560405160405180910390a45050565b606081610e295750506040805180820190915260018152600360fc1b602082015290565b8160005b8115610e535780610e3d81611f3b565b9150610e4c9050600a83611e8a565b9150610e2d565b60008167ffffffffffffffff811115610e7c57634e487b7160e01b600052604160045260246000fd5b6040519080825280601f01601f191660200182016040528015610ea6576020820181803683370190505b5090505b8415610c5157610ebb600183611ebd565b9150610ec8600a86611f56565b610ed3906030611e72565b60f81b818381518110610ef657634e487b7160e01b600052603260045260246000fd5b60200101906001600160f81b031916908160001a905350610f18600a86611e8a565b9450610eaa565b6060815160001415610f3f57505060408051602081019091526000815290565b600060405180606001604052806040815260200161200e6040913990506000600384516002610f6e9190611e72565b610f789190611e8a565b610f83906004611e9e565b67ffffffffffffffff811115610fa957634e487b7160e01b600052604160045260246000fd5b6040519080825280601f01601f191660200182016040528015610fd3576020820181803683370190505b509050600182016020820185865187015b8082101561103f576003820191508151603f8160121c168501518453600184019350603f81600c1c168501518453600184019350603f8160061c168501518453600184019350603f8116850151845350600183019250610fe4565b505060038651066001811461105b576002811461106e57611076565b603d6001830353603d6002830353611076565b603d60018303535b509195945050505050565b610ce3816040516024016110959190611dbf565b60408051601f198184030181529190526020810180516001600160e01b031663104c13eb60e21b1790526115b4565b610b0c8282604051806020016040528060008152506115d5565b6000828152600260205260409020546001600160a01b03166111595760405162461bcd60e51b815260206004820152602e60248201527f45524337323155524953746f726167653a2055524920736574206f66206e6f6e60448201526d32bc34b9ba32b73a103a37b5b2b760911b606482015260840161067d565b6000828152600660209081526040909120825161071e9284019061187e565b6007546001600160a01b03163314610abf5760405162461bcd60e51b815260206004820181905260248201527f4f776e61626c653a2063616c6c6572206973206e6f7420746865206f776e6572604482015260640161067d565b6000806111de836109c7565b9050806001600160a01b0316846001600160a01b0316148061122557506001600160a01b0380821660009081526005602090815260408083209388168352929052205460ff165b80610c515750836001600160a01b031661123e846105e1565b6001600160a01b031614949350505050565b826001600160a01b0316611263826109c7565b6001600160a01b0316146112c75760405162461bcd60e51b815260206004820152602560248201527f4552433732313a207472616e736665722066726f6d20696e636f72726563742060448201526437bbb732b960d91b606482015260840161067d565b6001600160a01b0382166113295760405162461bcd60e51b8152602060048201526024808201527f4552433732313a207472616e7366657220746f20746865207a65726f206164646044820152637265737360e01b606482015260840161067d565b611334600082610d97565b6001600160a01b038316600090815260036020526040812080546001929061135d908490611ebd565b90915550506001600160a01b038216600090815260036020526040812080546001929061138b908490611e72565b909155505060008181526002602052604080822080546001600160a01b0319166001600160a01b0386811691821790925591518493918716917fddf252ad1be2c89b69c2b068fc378daa952ba7f163c4a11628f55a4df523b3ef91a4505050565b600780546001600160a01b038381166001600160a01b0319831681179093556040519116919082907f8be0079c531659141344cd1fd0a4f28419497f9722a3daafe3b4186f6b6457e090600090a35050565b816001600160a01b0316836001600160a01b031614156114a05760405162461bcd60e51b815260206004820152601960248201527f4552433732313a20617070726f766520746f2063616c6c657200000000000000604482015260640161067d565b6001600160a01b03838116600081815260056020908152604080832094871680845294825291829020805460ff191686151590811790915591519182527f17307eab39ab6107e8899845ad3d59bd9653f200f220920489ca2b5937696c31910160405180910390a3505050565b611518848484611250565b61152484848484611608565b610b425760405162461bcd60e51b815260040161067d90611dd2565b606061154b82610d38565b600061156260408051602081019091526000815290565b9050600081511161158257604051806020016040528060008152506115ad565b8061158c84610e05565b60405160200161159d929190611b6e565b6040516020818303038152906040525b9392505050565b80516a636f6e736f6c652e6c6f67602083016000808483855afa5050505050565b6115df8383611715565b6115ec6000848484611608565b61071e5760405162461bcd60e51b815260040161067d90611dd2565b60006001600160a01b0384163b1561170a57604051630a85bd0160e11b81526001600160a01b0385169063150b7a029061164c903390899088908890600401611d8c565b602060405180830381600087803b15801561166657600080fd5b505af1925050508015611696575060408051601f3d908101601f1916820190925261169391810190611b0e565b60015b6116f0573d8080156116c4576040519150601f19603f3d011682016040523d82523d6000602084013e6116c9565b606091505b5080516116e85760405162461bcd60e51b815260040161067d90611dd2565b805181602001fd5b6001600160e01b031916630a85bd0160e11b149050610c51565b506001949350505050565b6001600160a01b03821661176b5760405162461bcd60e51b815260206004820181905260248201527f4552433732313a206d696e7420746f20746865207a65726f2061646472657373604482015260640161067d565b6000818152600260205260409020546001600160a01b0316156117d05760405162461bcd60e51b815260206004820152601c60248201527f4552433732313a20746f6b656e20616c7265616479206d696e74656400000000604482015260640161067d565b6001600160a01b03821660009081526003602052604081208054600192906117f9908490611e72565b909155505060008181526002602052604080822080546001600160a01b0319166001600160a01b03861690811790915590518392907fddf252ad1be2c89b69c2b068fc378daa952ba7f163c4a11628f55a4df523b3ef908290a45050565b60405180606001604052806003905b60608152602001906001900390816118665790505090565b82805461188a90611f00565b90600052602060002090601f0160209004810192826118ac57600085556118f2565b82601f106118c557805160ff19168380011785556118f2565b828001600101855582156118f2579182015b828111156118f25782518255916020019190600101906118d7565b506118fe929150611902565b5090565b5b808211156118fe5760008155600101611903565b80356001600160a01b038116811461192e57600080fd5b919050565b600060208284031215611944578081fd5b6115ad82611917565b6000806040838503121561195f578081fd5b61196883611917565b915061197660208401611917565b90509250929050565b600080600060608486031215611993578081fd5b61199c84611917565b92506119aa60208501611917565b9150604084013590509250925092565b600080600080608085870312156119cf578081fd5b6119d885611917565b93506119e660208601611917565b925060408501359150606085013567ffffffffffffffff80821115611a09578283fd5b818701915087601f830112611a1c578283fd5b813581811115611a2e57611a2e611f96565b604051601f8201601f19908116603f01168101908382118183101715611a5657611a56611f96565b816040528281528a6020848701011115611a6e578586fd5b82602086016020830137918201602001949094529598949750929550505050565b60008060408385031215611aa1578182fd5b611aaa83611917565b915060208301358015158114611abe578182fd5b809150509250929050565b60008060408385031215611adb578182fd5b611ae483611917565b946020939093013593505050565b600060208284031215611b03578081fd5b81356115ad81611fac565b600060208284031215611b1f578081fd5b81516115ad81611fac565b600060208284031215611b3b578081fd5b5035919050565b60008151808452611b5a816020860160208601611ed4565b601f01601f19169290920160200192915050565b60008351611b80818460208801611ed4565b835190830190611b94818360208801611ed4565b01949350505050565b60008451611baf818460208901611ed4565b845190830190611bc3818360208901611ed4565b8451910190611bd6818360208801611ed4565b0195945050505050565b737b20226e616d65223a202254786269546978202360601b81528251600090611c10816014850160208801611ed4565b7f222c20226465736372697074696f6e223a202241204e46542d706f7765726564601491840191820152730103a34b1b5b2ba34b7339039bcb9ba32b69116160651b60348201527f22747261697473223a205b7b202274726169745f74797065223a20224368656360488201527f6b656420496e222c202276616c7565223a20227472756522207d2c207b20227460688201527f726169745f74797065223a2022507572636861736564222c202276616c75652260888201526c01d10113a393ab291103eae961609d1b60a88201527f22696d616765223a2022646174613a696d6167652f7376672b786d6c3b62617360b582015263194d8d0b60e21b60d58201528351611d258160d9840160208801611ed4565b611d3d60d9828401016222207d60e81b815260030190565b9695505050505050565b7f646174613a6170706c69636174696f6e2f6a736f6e3b6261736536342c000000815260008251611d7f81601d850160208701611ed4565b91909101601d0192915050565b6001600160a01b0385811682528416602082015260408101839052608060608201819052600090611d3d90830184611b42565b6020815260006115ad6020830184611b42565b60208082526032908201527f4552433732313a207472616e7366657220746f206e6f6e20455243373231526560408201527131b2b4bb32b91034b6b83632b6b2b73a32b960711b606082015260800190565b6020808252602e908201527f4552433732313a2063616c6c6572206973206e6f7420746f6b656e206f776e6560408201526d1c881b9bdc88185c1c1c9bdd995960921b606082015260800190565b60008219821115611e8557611e85611f6a565b500190565b600082611e9957611e99611f80565b500490565b6000816000190483118215151615611eb857611eb8611f6a565b500290565b600082821015611ecf57611ecf611f6a565b500390565b60005b83811015611eef578181015183820152602001611ed7565b83811115610b425750506000910152565b600181811c90821680611f1457607f821691505b60208210811415611f3557634e487b7160e01b600052602260045260246000fd5b50919050565b6000600019821415611f4f57611f4f611f6a565b5060010190565b600082611f6557611f65611f80565b500690565b634e487b7160e01b600052601160045260246000fd5b634e487b7160e01b600052601260045260246000fd5b634e487b7160e01b600052604160045260246000fd5b6001600160e01b031981168114610ce357600080fdfe3c7376672076696577426f783d2230203020313030203130302220786d6c6e733d22687474703a2f2f7777772e77332e6f72672f323030302f737667223e3c7465787420793d223530223e4142434445464748494a4b4c4d4e4f505152535455565758595a6162636465666768696a6b6c6d6e6f707172737475767778797a303132333435363738392b2fa2646970667358221220760e8cdda59a7e09afa5b423fa87dae3384f7a24a36c57ff489a6db56688a17564736f6c63430008040033",
    "linkReferences": {},
    "deployedLinkReferences": {}
}